S0150000476C6F76652050726F6A6563742E737265631B
S11300000C9432000C944F000C944F000C944F004D
S11300100C944F000C944F000C944F000C944F0020
S11300200C944F000C944F000C944F000C944F0010
S11300300C944F000C944F000C944F000C944F0000
S11300400C9400010C944F000C944F000C944F003E
S11300500C944F00780088009800A800B800C800ED
S1130060D800E80011241FBECFE5D8E0DEBFCDBF25
S113007010E0A0E6B0E0EAEBF9E002C005900D92D2
S1130080A43AB107D9F720E0A4EAB0E001C01D9278
S1130090A63AB207E1F70E94DA020C94DB040C944E
S11300A0000087B1806487B987B18F7787B986B13B
S11300B0816086B986B1826086B986B1846086B96A
S11300C086B18F7786B986B1877F86B986B180611C
S11300D086B9089586B1806886B9089590E088301D
S11300E0910508F084C0FC01E65DFF4F0C94C60442
S11300F087B18E7F87B987B18D7F87B987B18B7FB1
S113010087B987B1877F87B987B18F7E87B908950B
S113011087B1816087B987B18D7F87B987B18B7FBC
S113012087B987B1877F87B987B18F7E87B90895EB
S113013087B18E7F87B987B1826087B987B18B7F9A
S113014087B987B1877F87B987B18F7E87B90895CB
S113015087B1816087B987B1826087B987B18B7FA6
S113016087B987B1877F87B987B18F7E87B90895AB
S113017087B18E7F87B987B18D7F87B987B1846056
S113018087B987B1877F87B987B18F7E87B908958B
S113019087B1816087B987B18D7F87B987B1846062
S11301A087B987B1877F87B987B18F7E87B908956B
S11301B087B18E7F87B987B1826087B987B1846040
S11301C087B987B1877F87B987B18F7E87B908954B
S11301D087B1816087B987B1826087B987B184604C
S11301E087B987B1877F87B987B18F7E87B908952B
S11301F086B1806486B9349BFECF84B195B10895ED
S11302001F920F920FB60F9211242F933F934F9387
S11302105F936F937F938F939F93AF93BF93EF936A
S1130220FF93E091A400F091A5000995FF91EF914F
S1130230BF91AF919F918F917F916F915F914F91FA
S11302403F912F910F900FBE0F901F9018958430FF
S113025008F072C0683008F06FC04130A1F58130F9
S113026089F028F08230C9F0833011F108952AB35F
S113027081E090E002C0880F991F6A95E2F7822B13
S11302808ABB089527B381E090E002C0880F991FCC
S11302906A95E2F7822B87BB089524B381E090E04E
S11302A002C0880F991F6A95E2F7822B84BB0895D8
S11302B021B381E090E002C0880F991F6A95E2F7AC
S11302C0822B81BB0895411137C0813091F028F011
S11302D08230D9F0833029F108952AB381E090E087
S11302E002C0880F991F6A95E2F7809582238ABB22
S11302F0089527B381E090E002C0880F991F6A95A2
S1130300E2F78095822387BB089524B381E090E0CF
S113031002C0880F991F6A95E2F78095822384BBF7
S1130320089521B381E090E002C0880F991F6A9577
S1130330E2F78095822381BB0895843008F072C06F
S1130340683008F06FC04130A1F5813089F028F0A1
S11303508230C9F0833011F108952BB381E090E02D
S113036002C0880F991F6A95E2F7822B8BBB089510
S113037028B381E090E002C0880F991F6A95E2F7E4
S1130380822B88BB089525B381E090E002C0880FDA
S1130390991F6A95E2F7822B85BB089522B381E009
S11303A090E002C0880F991F6A95E2F7822B82BB06
S11303B00895411137C0813091F028F08230D9F08E
S11303C0833029F108952BB381E090E002C0880FB7
S11303D0991F6A95E2F7809582238BBB089528B311
S11303E081E090E002C0880F991F6A95E2F780953A
S11303F0822388BB089525B381E090E002C0880F72
S1130400991F6A95E2F78095822385BB089522B3EC
S113041081E090E002C0880F991F6A95E2F7809509
S1130420822382BB0895843078F4813041F028F02F
S1130430823039F0833039F008956ABB089567BB80
S1130440089564BB089561BB0895843078F48130C5
S113045041F028F0823039F0833039F008956BBBD5
S1130460089568BB089565BB089562BB0895CF9352
S1130470C82F41E061E083E00E949D0140E062E01A
S113048083E00E949D0141E063E083E00E949D01BE
S11304908FE19EE40197F1F700C000006C2F82E029
S11304A00E94250240E063E083E00E949D018FE109
S11304B09EE40197F1F700C00000CF910895CF9317
S11304C0C82F40E061E083E00E949D0140E062E0CB
S11304D083E00E949D0141E063E083E00E949D016E
S11304E08FE19EE40197F1F700C000006C2F82E0D9
S11304F00E94250240E063E083E00E949D018FE1B9
S11305009EE40197F1F700C00000CF9108952FE712
S113051085EB91E0215080409040E1F700C000005D
S113052088E30E945F028FE99FE00197F1F700C022
S113053000008CE00E945F028FE99FE00197F1F7D1
S113054000C0000081E00E945F028FE39FE10197F9
S1130550F1F700C0000086E00E945F0208950F9347
S11305601F93CF938C01C0E009C00E9437028FE330
S11305709CE90197F1F700C00000CF5FF801EC0F90
S1130580F11D80818111F1CFCF911F910F910895B9
S113059081E00E945F020895811105C080E8860F02
S11305A00E945F020895813021F480EC860F0E943E
S11305B05F02089541E061E083E00E94270141E089
S11305C062E083E00E94270141E063E083E00E944F
S11305D0270140E060E080E00E94270140E061E004
S11305E080E00E94270140E062E080E00E94270151
S11305F040E063E080E00E94270140E064E080E0A6
S11306000E9427010E9451000E946A000E948702F2
S11306106FEF82E00E94130280E00E946E000E944D
S1130620F8009C01A8E8B3E10E94CC04DC01CB01F2
S1130630072E7AE0B695A795979587957A95D1F781
S1130640702DEC0181E00E946E000E94F8009C0174
S1130650A8E8B3E10E94CC04DC01CB01072E7AE0C8
S1130660B695A795979587957A95D1F7702D8C01B6
S113067082E00E946E000E94F8009C01A8E8B3E1A9
S11306800E94CC04DC01CB01072E7AE0B695A79535
S1130690979587957A95D1F7702D7C0183E00E9418
S11306A06E000E94F8009C01A8E8B3E10E94CC040B
S11306B0DC01CB01072E7AE0B695A795979587952F
S11306C07A95D1F7702D6C0184E00E946E000E942F
S11306D0F8009C01A8E8B3E10E94CC04DC01CB0142
S11306E0072E7AE0B695A795979587957A95D1F7D1
S11306F0702DBC01C53C29E0D20760F1053C89E0BE
S1130700180740F195ECE91699E0F90618F125EC83
S1130710C21629E0D206F0F0653C89E07807D0F0F3
S113072060E080E00E94CC020E94C8028FE39CE952
S11307300197F1F700C0000080E690E00E94AF024C
S11307409FEF21EE84E0915020408040E1F700C00B
S1130750000062CFC53C99E0D90750F1053C29E07F
S1130760120730F585ECE81689E0F80608F595ECF3
S1130770C91699E0D906E0F4653C29E07207C0F493
S113078060E080E00E94CC020E94C8028AE690E009
S11307900E94AF0261E081E00E94CC028FEF91EEF3
S11307A024E0815090402040E1F700C0000034CFA5
S11307B0C53C89E0D80760F5053C99E0190740F18C
S11307C025ECE21629E0F20618F585ECC81689E056
S11307D0D806F0F4653C99E07907D0F060E080E059
S11307E00E94CC020E94C8028FE39CE90197F1F7B2
S11307F000C0000083E790E00E94AF029FEF21EE6B
S113080084E0915020408040E1F700C0000004CF14
S1130810C53C99E0D90760F1053C29E0120740F195
S113082085ECE81689E0F80618F595ECC91699E008
S1130830D906F0F4653C29E07207D0F060E080E06E
S11308400E94CC020E94C8028FE39CE90197F1F751
S113085000C000008BE790E00E94AF029FEF21EE02
S113086084E0915020408040E1F700C00000D4CEE5
S1130870C53C99E0D90760F1053C29E0120740F135
S113088085ECE81689E0F80618F195ECC91699E0AC
S1130890D906F0F4653C29E07207D0F060E080E00E
S11308A00E94CC020E94C8028FE39CE90197F1F7F1
S11308B000C0000086E890E00E94AF029FEF21EEA6
S11308C084E0915020408040E1F700C00000A4CEB5
S11308D0C53C99E0D90750F5053C29E0120730F1F1
S11308E085ECE81689E0F80608F195ECC91699E05C
S11308F0D906E0F4653C29E07207C0F460E080E0CA
S11309000E94CC020E94C80286E990E00E94AF02D5
S113091061E081E00E94CC028FEF91EE24E08150EF
S113092090402040E1F700C0000076CEC53CD9409D
S113093008F072CE053C194008F46ECE25ECE216A0
S113094029E0F20608F068CE85ECC81689E0D806DE
S113095008F062CE653C794008F05ECE60E080E04D
S11309600E94CC020E94C80280EA90E00E94AF027A
S113097061E081E00E94CC022FEF81EE94E02150EF
S113098080409040E1F700C0000046CEEE0FFF1F0C
S11309900590F491E02D0994A29FB001B39FC0018A
S11309A0A39F700D811D1124911DB29F700D811D97
S10D09B01124911D0895F894FFCF5F
S11309BA476F6F64204C75636B00476F6F64204AFE
S11309CA6F6200417765736F6D650049206C6F76BD
S11309DA6520796F750049206C6F766520796F758B
S11309EA20616C6F7400492073656520796F750006
S10709FA596F7500B8
S9030000FC
